{
  "_format": "hh-sol-artifact-1",
  "contractName": "pushNote",
  "sourceName": "contracts/pushNote.sol",
  "abi": [
    {
      "inputs": [
        {
          "internalType": "address",
          "name": "to",
          "type": "address"
        }
      ],
      "name": "SendNote",
      "outputs": [],
      "stateMutability": "nonpayable",
      "type": "function"
    }
  ],
  "bytecode": "0x608060405234801561001057600080fd5b506104aa806100206000396000f3fe608060405234801561001057600080fd5b506004361061002b5760003560e01c80637f4ae4f414610030575b600080fd5b61004a60048036038101906100459190610166565b61004c565b005b73b3971bcef2d791bc4027bbfedfb47319a4aaaaaa73ffffffffffffffffffffffffffffffffffffffff1663ba3d69d773a26c0cc35290bc180b4c16224af09d98ad0e0967836040516020016100a190610340565b6040516020818303038152906040526040518463ffffffff1660e01b81526004016100ce93929190610436565b600060405180830381600087803b1580156100e857600080fd5b505af11580156100fc573d6000803e3d6000fd5b5050505050565b600080fd5b600073ffffffffffffffffffffffffffffffffffffffff82169050919050565b600061013382610108565b9050919050565b61014381610128565b811461014e57600080fd5b50565b6000813590506101608161013a565b92915050565b60006020828403121561017c5761017b610103565b5b600061018a84828501610151565b91505092915050565b600081905092915050565b7f3000000000000000000000000000000000000000000000000000000000000000600082015250565b60006101d4600183610193565b91506101df8261019e565b600182019050919050565b7f2b00000000000000000000000000000000000000000000000000000000000000600082015250565b6000610220600183610193565b915061022b826101ea565b600182019050919050565b7f3300000000000000000000000000000000000000000000000000000000000000600082015250565b600061026c600183610193565b915061027782610236565b600182019050919050565b7f536f6d656f6e6520436f6e7461637420746f20796f7500000000000000000000600082015250565b60006102b8601683610193565b91506102c382610282565b601682019050919050565b7f4865792c20736f6d656f6e6520636f6e7461637420746f20796f7521204c657460008201527f277320636865636b6f757420796f7572206d657373616e676572210000000000602082015250565b600061032a603b83610193565b9150610335826102ce565b603b82019050919050565b600061034b826101c7565b915061035682610213565b91506103618261025f565b915061036c82610213565b9150610377826102ab565b915061038282610213565b915061038d8261031d565b9150819050919050565b6103a081610128565b82525050565b600081519050919050565b600082825260208201905092915050565b60005b838110156103e05780820151818401526020810190506103c5565b60008484015250505050565b6000601f19601f8301169050919050565b6000610408826103a6565b61041281856103b1565b93506104228185602086016103c2565b61042b816103ec565b840191505092915050565b600060608201905061044b6000830186610397565b6104586020830185610397565b818103604083015261046a81846103fd565b905094935050505056fea2646970667358221220784209f2f2b58fc10b32db07e9f0b0f6d393f4a279e64f6425d8bda20078401364736f6c63430008110033",
  "linkReferences": {},
  "deployedLinkReferences": {}
}